:100000000C9439000C941F0E0C941F0E0C941F0EB0
:100010000C941F0E0C941F0E0C941F0E0C941F0EAC
:100020000C941F0E0C94B9090C941F0E0C941F0E07
:100030000C941F0E0C941F0E0C941F0E0C941F0E8C
:100040000C941F0E0C941F0E0C941F0E0C941F0E7C
:100050000C941F0E006002CD8002CD02CF001C5018
:1000600002CF02D38002D302D400041B02D402D7F1
:10007000800011241FBECFE5D4E0DEBFCDBFE4E594
:10008000F0E040E017C0B591A5913591259105911B
:1000900007FD0CC095918591EF01F92FE82F059090
:1000A0000D92A217B307D9F7FE0104C01D92A21743
:1000B000B307E1F7E137F40731F70E9406040C9427
:0600C000E70DF894FFCFEC
:1000C600000000BE00000000000600060000002838
:1000D6007C287C2800000C92FF9264000E4A2E10A9
:1000E600E8A4E000769999A94EA000000006000059
:1000F600003C4281000000000000000081423C00FC
:10010600000A040A00000000103810000000004039
:100116003000000000001010100000000000400039
:10012600000000402010080400007C8282827C00CF
:10013600000082FF80000000C2A1A1918E00004451
:100146009292926C00001C1010FC1000009E92927D
:100156009272000078949291600000824222120E00
:1001660000006C9292926C00000C9252321C0000BD
:1001760000004800000000004034000000000010AD
:100186002844000000002828280000000044281009
:100196000000000402A2120C007C82BAAABAA29E37
:1001A60000FC121212FC0000FE9292926C00007C7F
:1001B600828282820000FE8282827C0000FE92920F
:1001C60092920000FE121212020000FE829292F239
:1001D6000000FE101010FE00000082FE82000000EB
:1001E6004080827E020000FE102844820000FE80CD
:1001F6008080800000FE0C180CFE0000FE1C38708B
:10020600FE007C82828282827C00FE1212120C0028
:10021600003E4252627C8000FE3252528C00004CFC
:100226009292926400000202FE020200007E80802A
:10023600807E00000E7080700E00007E8040807E02
:100246000000826C106C8200000204F804020000B8
:10025600C2A2928A860000FE820000000000040806
:10026600102040000000000082FE00000804020486
:10027600080000404040404000000002040000002A
:100286000000E0A0E080000000FE9090600000000A
:10029600609090000000609090FE0000000078A83A
:1002A6003800000008FC0A0A00000000DC94FC008C
:1002B6000000FE1010F08000000000F400000000B6
:1002C6000000807A00000000FE30C88000000000B8
:1002D600FE80000000F8103010F00000F81010103A
:1002E600F000007088888870000000FC2424180044
:1002F60000182424FC00000000F81008000000107C
:10030600A8A8A84000000010F890000000708080A7
:10031600F0800000007080700000007080408070E7
:100326000000885020508800000810E010080000E7
:1003360000C8A898000010FE82000000000000001F
:10034600FF0000000000000082FE100000100810F0
:100356000800FFFFFFFFFFFFFF55AA55AA55AA5544
:0E036600002646404626000000000000000071
:1003740053434F52453A0048656C6C6F20576F7277
:100384006C642100205052455353204C4546542060
:100394000020544F20504C415920004745542052CE
:1003A40045414459212121002020202020202020C3
:1003B4002020202000330032003100474F2100204C
:0303C400202000F6
:1003C700FE03090BF90B0903F94B494B4903090BC9
:1003D700F90B0903FE070C08080B0808080B0A0AA3
:0A03E7000A0A0808080B08080C07B2
:1003F100FC9001F903010103F9090B09F903F90162
:1004010003010190FC030008090D09090C09090DFC
:0A04110009090C09090D0908000390
:01041B0001DF
:10041C00CF92DF92EF92FF920F931F93CF93DF93C4
:10042C00CDB7DEB7EDB6FEB68091D302882309F4C2
:10043C00D9C1989912C08091D40280FD0EC00E943F
:10044C00EA068091D40281608093D4028FE39CE908
:10045C000197F1F700C0000007C0989B05C0809180
:10046C00D4028E7F8093D4029B993EC08091D4029B
:10047C0083FD3AC09C991EC060E08EEF0E94210E55
:10048C000E944F05882339F060E08EEF0E94210E08
:10049C000E943B0D1DC060E08FEF0E94210E0E9458
:1004AC004F058823A9F060E08FEF0E94210E0E9477
:1004BC003B0D0EC060E08FEF0E94210E0E944F0595
:1004CC00882331F060E08FEF0E94210E0E943B0DDB
:1004DC008091D40288608093D4028FE39CE90197C9
:1004EC00F1F700C0000007C09B9B05C08091D402AF
:1004FC00877F8093D40299993EC08091D40281FD6C
:10050C003AC09C991EC060E082E00E94210E0E94BD
:10051C004F05882339F060E082E00E94210E0E9492
:10052C003B0D1DC060E081E00E94210E0E944F0532
:10053C008823A9F060E081E00E94210E0E943B0D0F
:10054C000EC060E081E00E94210E0E944F058823BE
:10055C0031F060E081E00E94210E0E943B0D809101
:10056C00D40282608093D4028FE39CE90197F1F767
:10057C0000C0000007C0999B05C08091D4028D7FFC
:10058C008093D4029A992AC08091D40282FF10C021
:10059C0025C061E080E00E94210E0E943B0D9FEF80
:1005AC0029EF30E0915020403040E1F700C00000CE
:1005BC0061E080E00E94210E0E944F058111E9CF7D
:1005CC000E94E0058091D40284608093D4028FE372
:1005DC009CE90197F1F700C0000026C08091D5027C
:1005EC008823D9F061E080E00E94210E0E944F0523
:1005FC00882339F061E080E00E94210E0E943B0DBF
:10060C0002C00E94E0051092D5029A9B0DC0809109
:10061C00D4028B7F8093D40207C09A9B05C0809133
:10062C00D4028B7F8093D4028091D3028823D9F09B
:10063C00D5C06C2D802F0E94210E0E94990C0E9417
:10064C00C10A87EC90E00197F1F700C000000F5F42
:10065C001F4F02C000E010E00531110554F39FEF6D
:10066C00C91AD90A02C0C12CD12C2CE0C216D10453
:10067C008CF3C12CD12C19C06C2D802F0E94210E13
:10068C000E94DA0B0E94C10A87EC90E00197F1F707
:10069C0000C000000F5F1F4F02C000E010E00531EA
:1006AC00110554F39FEFC91AD90A2CE0C216D104D4
:1006BC00A4F361EF73E080E00E94070A3FEF83ED43
:1006CC0090E3315080409040E1F700C00000C12C15
:1006DC00D12C19C06C2D802F0E94210E0E94990CD8
:1006EC000E94C10A87EC90E00197F1F700C000006E
:1006FC000F5F1F4F02C000E010E00531110554F3ED
:10070C009FEFC91AD90A2CE0C216D104A4F3C12C4C
:10071C00D12C19C06C2D802F0E94210E0E94DA0B57
:10072C000E94C10A87EC90E00197F1F700C000002D
:10073C000F5F1F4F02C000E010E00531110554F3AC
:10074C009FEFC91AD90A2CE0C216D104A4F38091E8
:10075C00D1029091D2020E948C0DCDB6DEB62DB78F
:10076C003EB7281B31090FB6F8943EBF0FBE2DBF04
:10077C000DB71EB70F5F1F4FB8018091D10290913A
:10078C00D2020E9464076AE080E00E94210E44E7D6
:10079C0053E060E00E94500A6AE08DE20E94210E54
:1007AC00A80160E80E94500A3FEF83ED90E33150BE
:1007BC0080409040E1F700C000000E94200D2FEF18
:1007CC0039E688E1215030408040E1F700C000005C
:1007DC000FB6F894DEBE0FBECDBE04C00E94010C55
:1007EC000E94C10A0FB6F894FEBE0FBEEDBEDF919B
:1007FC00CF911F910F91FF90EF90DF90CF900895C4
:10080C008FEF8ABB97E097BB85BB0E946B0688E095
:10081C00E0E8F0E0AFEBB2E001900D928A95E1F7E1
:10082C008FE99FE00197F1F700C000000E94270BB1
:10083C000E94200D82E083BF81E089BF789481E023
:10084C008093D3020E94F40A00E010E01EC0C8019D
:10085C008C0F9D1F66E070E00E94640D892B31F4B3
:10086C006C2F802F0E94210E0E94010987EC90E0D2
:10087C000197F1F700C00000219602C0C0E0D0E063
:10088C00C033D10524F30F5F1F4F04351105B4F3AA
:10089C0000E010E01EC0C8018C0F9D1F66E070E0E8
:1008AC000E94640D892B31F46C2F802F0E94210E35
:1008BC000E94A40887EC90E00197F1F700C00000BB
:1008CC00219602C0C0E0D0E0C033D10524F30F5F05
:1008DC001F4F04351105B4F364E180E00E94210E32
:1008EC004BE753E060E00E94500A9FEF23ED80E35A
:1008FC00915020408040E1F700C0000067EC73E0AD
:10090C0080E00E94070A9FEF29E688E19150204081
:10091C008040E1F700C000006FE080E00E94210EF3
:10092C0048E853E060E00E94500A67E18DE00E94C5
:10093C00210E45E953E060E00E94500A9B99FECFDE
:10094C0000E010E015C06C2F802F0E94210E0E9439
:10095C00A40887EC90E00197F1F700C00000219605
:10096C0002C0C0E0D0E0C033D1056CF30F5F1F4F65
:10097C0004351105B4F39FE72AE186E0915020403D
:10098C008040E1F700C0000064E180E00E94210E8D
:10099C004FE953E060E00E94500A9FE72FE482E1A8
:1009AC00915020408040E1F700C0000064E180E0FD
:1009BC000E94210E4CEA53E060E00E94500A9FE72F
:1009CC002AE186E0915020408040E1F700C0000011
:1009DC0064E184E10E94210E49EB53E060E00E9447
:1009EC00500A9FEF29E688E1915020408040E1F7C2
:1009FC0000C0000064E184E10E94210E4BEB53E047
:100A0C0060E00E94500A9FEF29E688E19150204057
:100A1C008040E1F700C0000064E184E10E94210EF7
:100A2C004DEB53E060E00E94500A9FEF29E688E10D
:100A3C00915020408040E1F700C0000064E184E167
:100A4C000E94210E4FEB53E060E00E94500A9FEF92
:100A5C0029E688E1915020408040E1F700C0000079
:100A6C0064E184E10E94210E43EC53E060E00E94BB
:100A7C00500A9FEF24E38CE0915020408040E1F736
:100A8C0000C000000E940E028091D3028111FACFA7
:020A9C00D6CEB4
:100A9E008F929F92AF92BF92CF92DF92EF92FF9280
:100AAE000F931F93CF93DF938C01CFEBD2E0E880AF
:100ABE00F980BC01C7010E94070ED82EC92EB701BE
:100ACE008A819B810E94070EB8010E94070EB82EE4
:100ADE00A92EB7018C819D810E94070EB8010E943C
:100AEE00070E982E892EB7018E819F810E94070EC8
:100AFE00B8010E94070EC82FD92F84E18D15A8F1D9
:100B0E008BE08C15A0F16C2D8D2D0E94210E0E9474
:100B1E004E0C813071F184E18B1568F18BE08A15F2
:100B2E0060F16A2D8B2D0E94210E0E944E0C813099
:100B3E0031F184E1891528F18BE0881520F1682DBB
:100B4E00892D0E94210E0E944E0C8130F1F0C5318C
:100B5E00F0F4DC30F0F46D2F8C2F0E94210E0E94E9
:100B6E004E0C8130C1F081E017C080E015C080E0EE
:100B7E0013C080E011C080E00FC080E00DC080E0A7
:100B8E000BC080E009C080E007C080E005C080E0B7
:100B9E0003C080E001C080E0DF91CF911F910F91E3
:100BAE00FF90EF90DF90CF90BF90AF909F908F907F
:020BBE00089598
:100BC0000F931F93CF93DF93CFEBD2E061E0888147
:100BD00099810E945D09688179818A819B810E9447
:100BE000070E61E00E945D09688179818C819D8199
:100BF0000E94070E61E00E945D09688179818E8103
:100C00009F810E94070E61E00E945D090E944308D7
:100C10008091D60290E00E94FD0DC0E0D0E003C0BC
:100C20000E94010D21960E94010D8C010E94010D70
:100C300068EE73E00E94640DBC01C8010E94640D5F
:100C4000C817D9076CF30E94010D65E070E00E949F
:100C5000640DFC01EE0FFF1FEE0FFF1FEE0FFF1FD5
:100C6000E05AFF4F88E0AFEBB2E001900D928A9519
:100C7000E1F70E948D0A81111092D3028091CB027C
:100C80009091CC0201969093CC028093CB0265E0C8
:100C900070E00E94640D892BC9F48091CD0290917F
:100CA000CE028D3D25E092078CF0845691098C3D53
:100CB00025E092072CF09093CE028093CD0206C0DF
:100CC0008CED95E09093CE028093CD02DF91CF9191
:060CD0001F910F91089531
:100CD600CF93DF93C0E6D0E062E08BE00E94210E66
:100CE6009983888360E08FEF0E94210E9B838A831D
:100CF60060E081E00E94210E9D838C836FEF80E08F
:100D06000E94210E9F838E8362E08BE00E94210E5B
:100D1600998788876FEF80E00E94210E9B878A87DC
:100D260060E081E00E94210E9D878C8760E082E072
:100D36000E94210E9F878E8762E08BE00E94210E23
:100D4600998B888B60E08FEF0E94210E9B8B8A8B9C
:100D56006FEF80E00E94210E9D8B8C8B6FEF81E000
:100D66000E94210E9F8B8E8B62E08BE00E94210EEB
:100D7600998F888F60E081E00E94210E9B8F8A8F79
:100D86006FEF80E00E94210E9D8F8C8F6FEF81E0C8
:100D96000E94210E9F8F8E8F62E08BE00E94210EB3
:100DA60099A388A360E08FEF0E94210E9BA38AA3DC
:100DB60060E081E00E94210E9DA38CA360E082E0AA
:0E0DC6000E94210E9FA38EA3DF91CF9108956E
:100DD4008F929F92AF92BF92CF92DF92EF92FF9247
:100DE4000F931F93CF93DF93CFEBD2E08A819B8144
:100DF4000E940E0E8C018C819D810E940E0E7C013E
:100E04008E819F810E940E0E6C010990D881C02DA5
:100E1400BE01C8010E94070EB82EA92EBE01C7014B
:100E24000E94070E982E892EBE01C6010E94070E4D
:100E3400C82FD92F84E18B15C0F18BE08A15A8F156
:100E44006091BF027091C002C8010E94070E0E9407
:100E54004E0C813051F184E1891538F18BE088150D
:100E640020F16091BF027091C002C7010E94070E79
:100E74000E944E0C8130C9F0C531B8F4DC30A8F4BE
:100E84006091BF027091C002C6010E94070E0E94C9
:100E94004E0C813051F00E94BE0CEFEBF2E0138354
:100EA4000283F582E482D782C682DF91CF911F91BB
:100EB4000F91FF90EF90DF90CF90BF90AF909F90F5
:040EC4008F9008956E
:100EC8008F929F92AF92BF92CF92DF92EF92FF9252
:100ED8000F931F93CF93DF93CDB7DEB74C017B0100
:100EE800CDB6DEB6ADB6BEB60E948C0D2DB73EB7F8
:100EF800281B31090FB6F8943EBF0FBE2DBF0DB7A2
:100F08001EB70F5F1F4FC4010E948C0D81149104FE
:100F1800B9F480E3F70180830FB6F894DEBE0FBE04
:100F2800CDBE2CC0C4016AE070E00E94640D805DF3
:100F3800F801E40FF11D8083862E972E4F5F01C0C4
:100F480040E01814190474F320E030E00DC0FC01EF
:100F5800E21BF30B3197EE0DFF1DD801A20FB31F53
:100F68008C9180832F5F3F4F842F90E0281739079B
:100F780074F30FB6F894BEBE0FBEADBE0FB6F894AC
:100F8800DEBE0FBECDBEDF91CF911F910F91FF90B6
:100F9800EF90DF90CF90BF90AF909F908F90089583
:100FA800DF92EF92FF920F931F93CF93DF938E34CC
:100FB80008F05DC0983208F05AC0F62ED92EE82EF7
:100FC80000E010E051C020E2F216C9F18F2D90E048
:100FD80081979C01220F331F220F331F220F331FCB
:100FE800281B390B200F311F032E000C440B2A53EA
:100FF8003F4F4F4FF901849147FD808190E00C2EBF
:1010080002C0959587950A94E2F780FF0CC06C2F73
:10101800802F0E94210EBC018E2D9D2D0E94070E4F
:101028000E94010917C06C2F802F0E94210EBC015D
:101038008E2D9D2D0E94070E0E94A4080BC06C2FB8
:10104800802F0E94210EBC018E2D9D2D0E94070E1F
:101058000E94A408219602C0C0E0D0E0C830D105A3
:101068000CF4B1CF0F5F1F4F07301105ACF3DF91C0
:0E107800CF911F910F91FF90EF90DF900895A0
:10108600EF92FF921F93CF93DF93E12CF12CDBE0DD
:1010960050C08D2F0E94500D882309F449C02FEFB0
:1010A600E21AF20A22E32E9DC0012F9D900D112413
:1010B6002091D1023091D202820F931F9093D202D7
:1010C6008093D10260E070E08D2F0E94860B15C0E0
:1010D6006FEF6D0F8C2F0E94210E0E944E0C182F61
:1010E6006D2F8C2F0E94210E612F0E94B10BCF5FB6
:1010F60001C0C0E0C53160F3D150D111FACFC0E0D4
:1011060007C060E08C2F0E94210E0E94E10CCF5F89
:10111600C531B8F30E94580B0E94C10A8FEF94E3C1
:101126002CE0815090402040E1F700C00000AFCF96
:10113600D150D111AECFDF91CF911F91FF90EF909B
:0211460008950A
:10114800CF92DF92EF92FF920F931F93CF93DF938B
:10115800843508F049C0903308F046C0C82FD92F0D
:10116800D695D695D695E82EF12C0D2F10E09770D0
:1011780021E030E0A90102C0440F551F9A95E2F71B
:10118800CA016701CC0CDD1CF601EE0DFF1DEE0F48
:10119800FF1FE857FF4FE00FF11F809590818923CB
:1011A800808380E090E00E94D00D60E070E080E8ED
:1011B8008C0F0E949F0D60E070E080E48D0F0E940C
:1011C8009F0DC6018E0D9F1D880F991F88579F4F31
:1011D800FC01E00FF11F61E070E080810E949F0D2B
:1011E80080E090E00E94DC0DDF91CF911F910F917C
:0A11F800FF90EF90DF90CF90089574
:10120200CF92DF92EF92FF920F931F93CF93DF93D0
:10121200843508F048C0903308F045C0C82FD92F54
:10122200D695D695D695E82EF12C0D2F10E0977015
:1012320021E030E0A90102C0440F551F9A95E2F760
:10124200CA016701CC0CDD1CF601EE0DFF1DEE0F8D
:10125200FF1FE857FF4FE00FF11F9081892B80831A
:1012620080E090E00E94D00D60E070E080E88C0F9A
:101272000E949F0D60E070E080E48D0F0E949F0D40
:10128200C6018E0D9F1D880F991F88579F4FFC0125
:10129200E00FF11F61E070E080810E949F0D80E00D
:1012A20090E00E94DC0DDF91CF911F910F91FF9092
:0812B200EF90DF90CF9008954A
:1012BA00DF92EF92FF920F931F93CF93DF93E82E63
:1012CA00853108F049C0D92E9C3008F045C0162F48
:1012DA00D92FF82E8E2D0E94DA0B612F8E2D9D2D7F
:1012EA000E94B10BC0E015C00D2D000F000F0C0FAE
:1012FA00602F1E2D110F110F812F0E94210E0E94A7
:10130A00740C602F83E0810F0E94210E0E94740CDE
:10131A00CF5FC43048F3DD0FDD0FCF2DCC0FCC0FDC
:10132A0011E01C0F6D2F812F0E94210E0E94740C58
:10133A00CE5F6D2F8C2F0E94210E0E94740CDD5FF0
:10134A006D2F812F0E94210E0E94740C6D2F8C2FFD
:10135A000E94210E0E94740CDF91CF911F910F9170
:08136A00FF90EF90DF90089561
:101372001F920F920FB60F9211242F933F934F9308
:101382005F936F937F938F939F93AF93BF93EF93EB
:10139200FF938091CF029091D00201969093D00258
:1013A2008093CF022091CD023091CE028217930713
:1013B200E1F41092D0021092CF0281E08093D50224
:1013C2008091D60290E00E94FD0D0E94010D65E021
:1013D20070E00E94640D01969091D602890F80936D
:1013E200D602883C11F41092D602FF91EF91BF9180
:1013F200AF919F918F917F916F915F914F913F91AB
:0C1402002F910F900FBE0F901F901895B7
:10140E00CF92DF92EF92CF93DF936B01E82E0E9483
:10141E00200DD0E036C08D2F90E02C2F26952695EE
:10142E00269535E1239F800D911D11244E2D960199
:10143E00280F391F411D97FD4A95A42FC901F901A7
:10144E008491A7FD808190E02C2F277002C0959586
:10145E0087952A95E2F780FF06C06C2F8D2F0E948C
:10146E00210E0E94990CCF5F01C0C0E0CC3098F2E3
:10147E000E94C10A8FE39CE90197F1F700C00000BA
:10148E00DF5FD53190F3DF91CF91EF90DF90CF906A
:02149E000895AF
:1014A000CF92DF92EF920F931F93CF93DF93C82FCA
:1014B000D92F983250F58E3428F0C0E0D8E0D90FFB
:1014C000D83218F56A01E62E00E010E011C08D2F29
:1014D000D832D8F4CE3428F0C0E0D8E0D80FD832D3
:1014E000A0F48C2F9D2F0E94D407C95F0F5F1F4F60
:1014F000AE2DC601800F911FA11D17FDAA95FC01FD
:101500006491A7FD60816111E2CFDF91CF911F91BE
:0A1510000F91EF90DF90CF90089547
:10151A008091BF029091C0020E944E0C811126C098
:10152A00EFEBF2E062817381808191810E94070E64
:10153A000E944E0C81111CC0EFEBF2E064817581B0
:10154A00808191810E94070E0E944E0C811112C067
:10155A00EFEBF2E066817781808191810E94070E2C
:10156A000E944E0C882339F081E0089581E00895A5
:08157A0081E0089581E008956D
:10158200CF93DF9380E090E00E94D00D60E070E0A6
:1015920080E80E949F0D60E070E080E40E949F0D51
:1015A200D0E018C08C2F90E0FC01EE0FFF1FE80F77
:1015B200F91FEE0FFF1FE857FF4FED0FF11D61E01E
:1015C20070E080810E949F0DCF5F01C0C0E0C435F2
:1015D20048F3DF5FD630D0F380E090E00E94DC0D6C
:0615E200DF91CF91089596
:1015E800CF93DF93C0E008C06BE08C2F0E94210EE0
:1015F80061E00E945D09CF5FC531B0F30E94C10A66
:101608002FEF89E698E1215080409040E1F700C033
:10161800000060E070E08BE00E94860BD0E00CC018
:101628006C2F8D2F0E94210E0E94DA0BCF5F01C014
:10163800C0E0CC30A8F3DF5FD531D0F30E94C10AF7
:06164800DF91CF9108952F
:10164E0080E090E00E94DC0D82E090E00E94D00DE0
:10165E000E94140E8FEC97E00197F1F700C0000086
:10166E0082E090E00E94DC0D80E090E00E94D00DC0
:10167E0060E070E081E20E949F0D60E070E080E922
:10168E000E949F0D60E070E080E20E949F0D60E07E
:10169E0070E08CE00E949F0D80E090E00E94DC0DD7
:0216AE0008959D
:1016B0001F93CF93DF93D0E023C06C2F8D2F0E9418
:1016C000210E0E944E0C811107C06C2F8D2F0E949D
:1016D000210E0E94DA0B0EC06C2F8D2F0E94210E5E
:1016E0000E944E0C182F6C2F8D2F0E94210E612FFF
:1016F0000E945D09CF5F01C0C0E0CC30F0F2DF5F37
:0C170000D531D0F3DF91CF911F910895F7
:10170C000F931F93CF93DF93D82F8B01C0E01CC096
:10171C006D2F8C2F0E94210E0E94DA0B0E94C10AA1
:10172C000115110539F08FE99FE00197F1F700C021
:10173C00000009C09FE728E381E0915020408040E1
:10174C00E1F700C00000CF5FC53110F3DF91CF91FE
:06175C001F910F9108959A
:101762001F93CF93DF93C82FD92F162F0E94E10C1E
:101772008C2F90E04D2F46954695D3702D2F30E05B
:10178200220F331F612F70E002C0660F771F2A9568
:10179200E2F7FC01EE0FFF1FE80FF91FE058FD4FC3
:1017A200E40FF11D8081682B6083DF91CF911F913F
:0217B200089598
:1017B4000F931F93CF93DF93182F8531D8F4092FFC
:1017C4009C30C0F40E94E10CD0E012C0602F660F80
:1017D400660F6C0F812F880F880F8D0F0E94210ECA
:1017E4000E94280CCF5F01C0C0E0C43078F3DF5FF3
:0E17F400D430D0F3DF91CF911F910F91089563
:10180200CF93DF93CFEBD2E062E0888199810E948F
:101812005D096A817B81888199810E94070E62E05D
:101822000E945D096C817D81888199810E94070EE9
:1018320062E00E945D096E817F81888199810E94A8
:0E184200070E62E00E945D09DF91CF910895CC
:10185000292F843510F5903300F590E0622F6695BE
:101860006695669570E0277041E050E0FA0102C08D
:10187000EE0FFF1F2A95E2F79F01AC01440F551FA1
:10188000FA01E80FF91FEE0FFF1FE857FF4FE60FB1
:0C189000F71F20958081282320830895F5
:10189C00292F392F3695369590E0FC01EE0FFF1F5E
:1018AC00E80FF91FE058FD4FE30FF11D6081237025
:1018BC0030E0220F331F83E090E0AC01022E02C017
:1018CC00440F551F0A94E2F7862F90E0842395234A
:0C18DC0002C0959587952A95E2F70895C3
:1018E800292F843508F59033F8F490E0422F469577
:1018F8004695469550E0277061E070E0FB0102C014
:10190800EE0FFF1F2A95E2F79F01BC01660F771FB4
:10191800FB01E80FF91FEE0FFF1FE857FF4FE40F19
:0A192800F51F8081282B208308950D
:101932000F931F93CF93DF938531D0F4192F9C30EF
:10194200B8F4082FD0E012C0612F660F660F6C0F3B
:10195200802F880F880F8D0F0E94210E0E94740C19
:10196200CF5F01C0C0E0C43078F3DF5FD430D0F382
:0A197200DF91CF911F910F910895AE
:10197C00CF93DF93CFEBD2E0888199810E94DA0B71
:10198C006A817B81888199810E94070E0E94DA0B03
:10199C006C817D81888199810E94070E0E94DA0BEF
:1019AC006E817F81888199810E94070E0E94DA0BDB
:0619BC00DF91CF910895B8
:1019C200292F90E0622F66956695237030E0220FF2
:1019D200331F43E050E0FA0102C0EE0FFF1F2A95C9
:1019E200E2F79F01FC01EE0FFF1FE80FF91FE0581D
:1019F200FD4FE60FF11D2095808128232083089555
:101A0200E7ECF2E020813181428153816DE27FE790
:101A120085E99CE40E94B10DDC01CB010196A11D78
:101A2200B11DE7ECF2E080839183A283B383F1E1FD
:0E1A3200B695A79597958795FA95D1F70895E3
:101A400030E014C0822F90E0FC01EE0FFF1FE80F82
:101A5000F91FEE0FFF1FE857FF4FE30FF11D108234
:101A60002F5F01C020E0243568F33F5F3630D0F3AC
:061A70000E94C10A089566
:101A76000F931F93CF93DF938C010E94BE0CCFEB85
:101A8600D2E0B801888199810E94070E99838883E4
:0A1A9600DF91CF911F910F91089589
:101AA000CF93DF93D82FC0E009C06D2F8C2F0E94F9
:101AB000210E0E944E0C882321F0CF5FC531A8F380
:081AC00081E0DF91CF91089550
:101AC80097FB072E16F4009407D077FD09D00E94E3
:101AD800780D07FC05D03EF4909581959F4F0895A9
:081AE800709561957F4F089590
:101AF000AA1BBB1B51E107C0AA1FBB1FA617B70734
:101B000010F0A61BB70B881F991F5A95A9F780954F
:081B10009095BC01CD01089580
:101B1800009779F020E008C06AE070E00E94640D48
:101B2800862F972F6BBB2F5F18161906ACF3822FE1
:061B3800089581E008950C
:101B3E00CF93C82F672B29F081E090E00E94DC0D37
:101B4E0004C081E090E00E94D00D8C2F0E941A0EEE
:041B5E00CF91089586
:101B6200DB018F939F930E94F20DBF91AF91A29FD1
:101B7200800D911DA39F900DB29F900D1124089589
:101B8200A29FB001B39FC001A39F700D811D1124BC
:0E1B9200911DB29F700D811D1124911D0895AB
:101BA00098B321E030E002C0220F331F8A95E2F79C
:081BB0002095292328BB0895AC
:101BB80098B321E030E002C0220F331F8A95E2F784
:061BC800292B28BB089543
:101BCE00EC010E94260E0E94250ECE010E94270EC9
:061BDE00CE010E94230E5F
:101BE4000E94C10DA59F900DB49F900DA49F800DE0
:061BF400911D112408956B
:101BFA000197A0E0B0E0E7ECF2E080839183A28352
:041C0A00B383089503
:0E1C0E00262F692F670F820F0E94210E089566
:0C1C1C00682F6195892F0E94210E089509
:0C1C280087B3806B87BB81E58DB9089500
:0A1C34008FB9779BFECF8FB10895A2
:041C3E000C94000002
:041C4200962F08953C
:041C46000E94610097
:021C4A000895FB
:021C4C000895F9
:021C4E000895F7
:021C5000C409C5
:00000001FF
